:100000000C942A000C943F000C943F000C943F0089
:100010000C943F000C943F000C943F000C943F0064
:100020000C943F000C943F000C943F000C943F0054
:100030000C943F000C943F000C943F000C943F0044
:100040000C943F000C943F000C943F000C943F0034
:100050000C943F0011241FBECFE5D8E0DEBFCDBF1A
:1000600010E0A0E6B0E0EEEDF7E002C005900D92E2
:10007000AA36B107D9F70E94B6030C94ED030C948D
:100080000000843008F07AC0683008F079C0413050
:10009000C1F008F077C0823009F456C0833009F40B
:1000A00060C0811509F443C027B381E090E002C02D
:1000B000880F991F6A95E2F78095822387BB81E0BC
:1000C00008958230E1F0833031F1811561F087B31A
:1000D00021E030E002C0220F331F6A95E2F7822B45
:1000E00087BB842F08958AB321E030E002C0220F3D
:1000F000331F6A95E2F7822B8ABB842F089584B35D
:1001000021E030E002C0220F331F6A95E2F7822B14
:1001100084BB842F089581B321E030E002C0220F18
:10012000331F6A95E2F7822B81BB842F08952AB38F
:1001300081E090E002C0880F991F6A95E2F78095F0
:1001400082238ABB81E0089524B381E090E002C05D
:10015000880F991F6A95E2F78095822384BB81E01E
:10016000089521B381E090E002C0880F991F6A953D
:10017000E2F78095822381BB81E0089580E00895B5
:1001800080E0089580E00895843008F07AC06830F7
:1001900008F079C04130C1F008F077C0823009F42E
:1001A00056C0833009F460C0811509F443C028B3F8
:1001B00081E090E002C0880F991F6A95E2F7809570
:1001C000822388BB81E008958230E1F0833031F1F1
:1001D000811561F088B321E030E002C0220F331FA7
:1001E0006A95E2F7822B88BB842F08958BB321E0B8
:1001F00030E002C0220F331F6A95E2F7822B8BBBDF
:10020000842F089585B321E030E002C0220F331F10
:100210006A95E2F7822B85BB842F089582B321E093
:1002200030E002C0220F331F6A95E2F7822B82BBB7
:10023000842F08952BB381E090E002C0880F991FAE
:100240006A95E2F7809582238BBB81E0089525B300
:1002500081E090E002C0880F991F6A95E2F78095CF
:10026000822385BB81E0089522B381E090E002C043
:10027000880F991F6A95E2F78095822382BB81E0FF
:10028000089580E0089580E0089580E00895843026
:1002900008F05EC0683008F05DC0823079F18330CC
:1002A00009F441C08115A9F026B381E090E0062E43
:1002B00002C0880F991F0A94E2F730E0822393234B
:1002C00002C0969587956A95E2F7FA01808381E0EE
:1002D000089529B381E090E0062E02C0880F991F8F
:1002E0000A94E2F730E08223932302C09695879523
:1002F0006A95E2F7FA01808381E0089523B381E0F3
:1003000090E0062E02C0880F991F0A94E2F730E0B1
:100310008223932302C0969587956A95E2F7FA01A6
:10032000808381E0089520B381E090E0062E02C032
:10033000880F991F0A94E2F730E08223932302C0CA
:10034000969587956A95E2F7FA01808381E0089592
:1003500080E0089580E008958430C0F56830C0F5ED
:100360008230E1F0833031F1811561F088B321E012
:1003700030E002C0220F331F6A95E2F7822788BB64
:1003800081E008958BB321E030E002C0220F331FDB
:100390006A95E2F782278BBB81E0089585B321E05F
:1003A00030E002C0220F331F6A95E2F7822785BB37
:1003B00081E0089582B321E030E002C0220F331FB4
:1003C0006A95E2F7822782BB81E0089580E0089574
:1003D00080E00895823081F028F4811551F067BBE8
:1003E00081E00895833019F461BB81E0089580E0D5
:1003F00008956ABB81E0089564BB81E0089582306E
:1004000081F028F4811551F068BB81E008958330B4
:1004100019F462BB81E0089580E008956BBB81E030
:10042000089565BB81E008958230B1F038F48115FC
:1004300071F086B3FB01808381E00895833029F455
:1004400080B3FB01808381E0089580E0089589B343
:10045000FB01808381E0089583B3FB01808381E009
:1004600008958230B1F038F4811571F088B3809529
:1004700088BB81E00895833029F482B3809582BBE4
:1004800081E0089580E008958BB380958BBB81E077
:10049000089585B3809585BB81E008956F708230A3
:1004A000C9F040F4811581F088B3807F682B68BB68
:1004B00081E00895833031F482B3807F682B62BB82
:1004C00081E0089580E008958BB3807F682B6BBB3B
:1004D00081E0089585B3807F682B65BB81E0089536
:1004E0006295607F8230C9F040F4811581F088B355
:1004F0008F70682B68BB81E00895833031F482B33C
:100500008F70682B62BB81E0089580E008958BB303
:100510008F70682B6BBB81E0089585B38F70682B5B
:1005200065BB81E00895843008F097C0683008F01A
:1005300096C0823009F44BC0833009F46BC081153A
:1005400079F0413081F128B381E090E002C0880F5A
:10055000991F6A95E2F78095822388BB81E0089510
:10056000413069F02BB381E090E002C0880F991F01
:100570006A95E2F7809582238BBB81E0089580B76E
:100580008B7F80BF2AB381E090E002C0880F991F63
:100590006A95E2F7982F909592239ABB9BB3892B8B
:1005A0008BBB842F089580B78B7F80BF27B381E0FA
:1005B00090E002C0880F991F6A95E2F7982F9095F6
:1005C000922397BB98B3892B88BB842F0895413021
:1005D00069F025B381E090E002C0880F991F6A9509
:1005E000E2F78095822385BB81E0089580B78B7FF9
:1005F00080BF24B381E090E002C0880F991F6A9504
:10060000E2F7982F9095922394BB95B3892B85BBE5
:10061000842F0895413069F022B381E090E002C058
:10062000880F991F6A95E2F78095822382BB81E04B
:10063000089580B78B7F80BF21B381E090E002C036
:10064000880F991F6A95E2F7982F9095922391BB96
:1006500092B3892B82BB842F089580E0089580E0B7
:10066000089580B7846080BF81E00895009731F0DD
:100670006FEFFC0181810E94EA01089582E00895F4
:10068000CF93DF93EC01892B11F18881813028F021
:1006900089F083E0DF91CF91089541E06B818A81F9
:1006A0000E9441008115B1F341E06B818A810E9473
:1006B000C400F0CF41E06B818A810E944100811526
:1006C00049F340E06B818A810E94C400E3CF82E05D
:1006D000E1CFCF93DF93EC01892B11F18881813039
:1006E00028F089F083E0DF91CF91089541E06B819C
:1006F0008A810E9441008115B1F340E06B818A81BB
:100700000E94C400F0CF41E06B818A810E944100C9
:10071000811549F341E06B818A810E94C400E3CFD7
:1007200082E0E1CF0097F1F06A30F0F4FC01208123
:10073000213018F061F083E00895E62FF0E0E05AF0
:10074000FF4F6081FC0181810E94FF010895E62F27
:10075000F0E0E05AFF4F60816095FC0181810E94CA
:10076000FF01089582E0089584E00895CF93DF9318
:1007700000D000D0CDB7DEB719821A821B821C824E
:1007800087E08B83CE0101960E943603CE0101964D
:100790000E94400300E010E0FF24F39406C00F2DF8
:1007A00018E003C0812F102F082F612FCE01019672
:1007B0000E9492032FEF89E698E1215080409040FB
:1007C000E1F700C00000011104C0193041F31F5FC0
:0E07D000ECCF111539F31150E8CFF894FFCF9C
:0A07DE003F065B4F666D7D077F6FDD
:00000001FF
