:100000000C942A000C9434000C9434000C943400AA
:100010000C9434000C9434000C9434000C94340090
:100020000C9434000C9434000C9434000C94340080
:100030000C9434000C9434000C9434000C94340070
:100040000C9434000C9434000C9434000C94340060
:100050000C94340011241FBECFE5D8E0DEBFCDBF25
:100060000E940F040C947B060C940000843008F06E
:100070007AC0683008F079C04130C1F008F077C02C
:10008000823009F456C0833009F460C0811509F448
:1000900043C027B381E090E002C0880F991F6A95A2
:1000A000E2F78095822387BB81E008958230E1F0FA
:1000B000833031F1811561F087B321E030E002C077
:1000C000220F331F6A95E2F7822B87BB842F089596
:1000D0008AB321E030E002C0220F331F6A95E2F7B5
:1000E000822B8ABB842F089584B321E030E002C0C4
:1000F000220F331F6A95E2F7822B84BB842F089569
:1001000081B321E030E002C0220F331F6A95E2F78D
:10011000822B81BB842F08952AB381E090E002C036
:10012000880F991F6A95E2F7809582238ABB81E048
:10013000089524B381E090E002C0880F991F6A956A
:10014000E2F78095822384BB81E0089521B381E0AA
:1001500090E002C0880F991F6A95E2F7809582238C
:1001600081BB81E0089580E0089580E0089580E0FB
:100170000895843008F07AC0683008F079C04130C2
:10018000C1F008F077C0823009F456C0833009F41A
:1001900060C0811509F443C028B381E090E002C03B
:1001A000880F991F6A95E2F78095822388BB81E0CA
:1001B00008958230E1F0833031F1811561F088B328
:1001C00021E030E002C0220F331F6A95E2F7822B54
:1001D00088BB842F08958BB321E030E002C0220F4A
:1001E000331F6A95E2F7822B8BBB842F089585B36A
:1001F00021E030E002C0220F331F6A95E2F7822B24
:1002000085BB842F089582B321E030E002C0220F25
:10021000331F6A95E2F7822B82BB842F08952BB39C
:1002200081E090E002C0880F991F6A95E2F78095FF
:1002300082238BBB81E0089525B381E090E002C06A
:10024000880F991F6A95E2F78095822385BB81E02C
:10025000089522B381E090E002C0880F991F6A954B
:10026000E2F78095822382BB81E0089580E00895C3
:1002700080E0089580E00895843008F05EC0683022
:1002800008F05DC0823079F1833009F441C08115F6
:10029000A9F026B381E090E0062E02C0880F991FD6
:1002A0000A94E2F730E08223932302C09695879563
:1002B0006A95E2F7FA01808381E0089529B381E02D
:1002C00090E0062E02C0880F991F0A94E2F730E0F2
:1002D0008223932302C0969587956A95E2F7FA01E7
:1002E000808381E0089523B381E090E0062E02C070
:1002F000880F991F0A94E2F730E08223932302C00B
:10030000969587956A95E2F7FA01808381E00895D2
:1003100020B381E090E0062E02C0880F991F0A9456
:10032000E2F730E08223932302C0969587956A9581
:10033000E2F7FA01808381E0089580E0089580E08B
:1003400008958430C0F56830C0F58230E1F0833024
:1003500031F1811561F088B321E030E002C0220F55
:10036000331F6A95E2F7822788BB81E008958BB33B
:1003700021E030E002C0220F331F6A95E2F78227A6
:100380008BBB81E0089585B321E030E002C0220FED
:10039000331F6A95E2F7822785BB81E0089582B317
:1003A00021E030E002C0220F331F6A95E2F7822776
:1003B00082BB81E0089580E0089580E00895823056
:1003C00081F028F4811551F067BB81E008958330F6
:1003D00019F461BB81E0089580E008956ABB81E073
:1003E000089564BB81E00895823081F028F481157E
:1003F00051F068BB81E00895833019F462BB81E05D
:10040000089580E008956BBB81E0089565BB81E0AD
:1004100008958230B1F038F4811571F086B3FB0194
:10042000808381E00895833029F480B3FB018083C9
:1004300081E0089580E0089589B3FB01808381E025
:10044000089583B3FB01808381E008958230B1F089
:1004500038F4811571F088B3809588BB81E00895E8
:10046000833029F482B3809582BB81E0089580E0D7
:1004700008958BB380958BBB81E0089585B38095FB
:1004800085BB81E008956F708230C9F040F481151A
:1004900081F088B3807F682B68BB81E0089583304A
:1004A00031F482B3807F682B62BB81E0089580E0E5
:1004B00008958BB3807F682B6BBB81E0089585B373
:1004C000807F682B65BB81E008956295607F8230F4
:1004D000C9F040F4811581F088B38F70682B68BB38
:1004E00081E00895833031F482B38F70682B62BB52
:1004F00081E0089580E008958BB38F70682B6BBB0B
:1005000081E0089585B38F70682B65BB81E0089505
:10051000843008F097C0683008F096C0823009F443
:100520004BC0833009F46BC0811579F0413081F103
:1005300028B381E090E002C0880F991F6A95E2F726
:100540008095822388BB81E00895413069F02BB308
:1005500081E090E002C0880F991F6A95E2F78095CC
:1005600082238BBB81E0089580B78B7F80BF2AB345
:1005700081E090E002C0880F991F6A95E2F7982FFA
:10058000909592239ABB9BB3892B8BBB842F0895A4
:1005900080B78B7F80BF27B381E090E002C0880FD7
:1005A000991F6A95E2F7982F9095922397BB98B37D
:1005B000892B88BB842F0895413069F025B381E0F1
:1005C00090E002C0880F991F6A95E2F78095822318
:1005D00085BB81E0089580B78B7F80BF24B381E025
:1005E00090E002C0880F991F6A95E2F7982F9095C6
:1005F000922394BB95B3892B85BB842F08954130FA
:1006000069F022B381E090E002C0880F991F6A95DB
:10061000E2F78095822382BB81E0089580B78B7FCB
:1006200080BF21B381E090E002C0880F991F6A95D6
:10063000E2F7982F9095922391BB92B3892B82BBBE
:10064000842F089580E0089580E0089580B7846045
:1006500080BF81E00895CF93DF93EC0182E0209783
:10066000D1F040E0698188810E943600811599F0BF
:100670008A81843078F4811511F081E00CC041E06A
:10068000698188810E94B900982F81E0911103C08F
:1006900080E001C080E0DF91CF9108950F931F9318
:1006A000CF93DF9300D00F92CDB7DEB78C017B8361
:1006B0006A8382E001151105C1F182E061157105BF
:1006C000A1F11982FB011082AE014F5F5F4FF8016B
:1006D000618180810E943C01811539F1F80182819C
:1006E000843010F5823018F089F081E01EC08981D5
:1006F000813028F481E0EA81FB81808316C011F00B
:1007000081E013C0EA81FB8110820FC089818130B2
:1007100031F098F4EA81FB81108281E006C091E01B
:10072000EA81FB81908301C080E00F900F900F90D1
:10073000DF91CF911F910F91089581E0F6CFCF9374
:10074000DF93EC0182E02097B9F041E06981888174
:100750000E943600811581F08A81813018F079F08D
:1007600083E00AC041E0698188810E94B900982F26
:1007700081E0911101C080E0DF91CF91089540E0C8
:10078000698188810E94B900982FF2CF0097C9F043
:10079000FC012281213018F069F083E0089540E0E7
:1007A000618180810E94B900982F81E091110AC077
:1007B00080E0089541E0618180810E94B900982F16
:1007C000F4CF82E008950097C9F0FC012281213026
:1007D00018F069F083E0089541E0618180810E9412
:1007E000B900982F81E091110AC080E0089540E09F
:1007F000618180810E94B900982FF4CF82E0089532
:10080000009759F0FC01618180810E94A101982F1D
:1008100081E0911103C080E0089582E00895CF93B4
:10082000DF93CDB7DEB7AC970FB6F894DEBF0FBE3F
:10083000CDBF9E01275E3F4F69018E010F5F1F4FA5
:10084000F12CEE24E39409C0F39428E0F21601F1B0
:100850000D5F1F4F33E0C30ED11CF8011082F182EF
:10086000E282C8010E949F03C8010E94E303F5E0F1
:10087000FF1650F7F601E082F1821282C6010E9453
:100880002B03F3940D5F1F4FF3E0CF0ED11CE5CF88
:10089000512C612C712CBB24BA940F2EF9E1CF2E70
:1008A000D12CF02DCC0EDD1E8FE0C80ED11C88247B
:1008B0008394912C8C0E9D1E98E1890E911C3324FB
:1008C00033946894222421F827C0712C41C07724E6
:1008D000739440C0C7010E94E3030F5F1F4F93E072
:1008E000E90EF11C0830110569F0C501002E02C0A7
:1008F000959587950A94E2F780FFECCFC7010E9497
:10090000C603EBCFB12C3FE78AE196E0315080403F
:100910009040E1F700C000007E01E8E2EE0EF11C1D
:100920008E01075E1F4FB701C8010E944E030D5F85
:100930001F4FFFEFEF1AFF0A0C151D05A1F788A541
:10094000811581F0B110C3CF2FEF721609F4BDCF1E
:10095000770C7394CE0101967C0100E010E0A72C87
:10096000B12CC3CFF9A4F1103BC0AAA4A11071C04F
:100970004BA44110DDC08CA5811529F28E010F5FBB
:100980001F4FC8010E94E3030D5F1F4F0815190593
:10099000C1F7F4E0BF1609F42DC1CE0101960E9403
:1009A000C603CE0146960E94C6030F2EF7E0FF2E27
:1009B000F02D07E010E0CE0104960E94E303015001
:1009C0001109C801880F991F800F911F21E030E0A5
:1009D0002C0F3D1F820F931F0E94E303842D5DC1E6
:1009E000E1E0BE1659F0582E772473948E010F5F04
:1009F0001F4FA12CB12CE72CF12C1CC0511007C0AB
:100A0000770C532CF0E87F1689F3512CEFCF7694B6
:100A1000532C21E07212EACF512CE8CFC8010E947A
:100A2000E3033FEFA31AB30A0D5F1F4F88E0A81638
:100A3000B10469F0C7010A2C02C0959587950A9404
:100A4000E2F780FFEBCFC8010E94C603EACFB32CC8
:100A50005ACF8E010F5F1F4FC8010E94E3030D5F45
:100A60001F4F08151905C1F792E0B91229C0639408
:100A7000E8E06E1609F454C07A94511028C0872D0E
:100A800090E001969C01220F331F820F931F21E0FB
:100A900030E02C0F3D1F820F931F0E94E303862D31
:100AA0008150990B9C01880F991F820F931FE1E0E1
:100AB000F0E0EC0FFD1F8E0F9F1F0E94E3030FC09D
:100AC0006894662462F80F2EF3E07F2EF02DCE019D
:100AD00001960E94E303CE0146960E94E303272D70
:100AE00030E0C901880F991F820F931F21E030E089
:100AF0002C0F3D1F820F931F0E94C603262D30E04E
:100B0000C901880F991F820F931FE1E0F0E0EC0FFD
:100B1000FD1F8E0F9F1F0E94C6035F2CB22CF3CEC9
:100B20006894662462F80F2EF3E07F2EF02DCFCF6D
:100B30008E010F5F1F4FC8010E94E3030D5F1F4F1F
:100B400008151905C1F7F3E0BF16D9F0CE010196DB
:100B50000E94C603CE0146960E94C6037A2C0F2E31
:100B6000F7E06F2EF02DCE010A960E94E303CE012E
:100B70000D960E94E3035A2C0F2EF3E0BF2EF02DAA
:100B8000C2CE73946A94671408F3872D90E08C01A9
:100B9000000F111F080F191F81E090E08C0F9D1F9F
:100BA000800F911F0E94C603E62CF12C9701220FA3
:100BB000331FE20EF31E81E090E08C0F9D1F8E0D1F
:100BC0009F1D0E94C6035110CECFC801039721E09C
:100BD00030E02C0F3D1F820F931F0E94E303C701DB
:100BE0000396E1E0F0E0EC0FFD1F8E0F9F1F0E94C7
:100BF000E30389CE872D90E08C01000F111F080FB1
:100C0000191F81E090E08C0F9D1F800F911F0E94A3
:100C1000C603E62CF12C9701220F331FE20EF31EC0
:100C200081E090E08C0F9D1F8E0D9F1D0E94C603DA
:100C300051101BC037E0631609F44BC0C80103967E
:100C4000E1E0F0E0EC0FFD1F8E0F9F1F0E94E30319
:100C5000C701039721E030E02C0F3D1F820F931F47
:100C60000E94E3037A9463944ECE711471F1C8012B
:100C7000039721E030E02C0F3D1F820F931F0E944D
:100C8000E303C7010396E1E0F0E0EC0FFD1F8E0FD8
:100C90009F1F0E94E303F62C872D77247394780E10
:100CA00066246A946F0C532C6894BB24B2F86714C2
:100CB00008F029CE77247A94780E662463946F0C1A
:100CC000542C6894BB24B2F81ECE062D10E0F62CEE
:100CD00072CECE01800F911F02970E94E303CE01D6
:100CE00049960E94E3037394552453940F2EF6E023
:0A0CF0006F2EF02D08CEF894FFCF10
:00000001FF
